:020000040000fa
:080000000002040000000000f2
:020000040000fa
:04000800b004000040
:020000040000fa
:04000c00b00400003c
:020000040000fa
:04001000b004000038
:020000040000fa
:04001400b004000034
:020000040000fa
:04001800b004000030
:020000040000fa
:04001c00b00400002c
:020000040000fa
:04002000b004000028
:020000040000fa
:04002400b004000024
:020000040000fa
:04002800b004000020
:020000040000fa
:04002c00b00400001c
:020000040000fa
:04003000b004000018
:020000040000fa
:04003400b004000014
:020000040000fa
:04003800b004000010
:020000040000fa
:04003c00b00400000c
:020000040000fa
:04004000b004000008
:020000040000fa
:04004400b004000004
:020000040000fa
:04004800b004000000
:020000040000fa
:04004c00b0040000fc
:020000040000fa
:04005000b0040000f8
:020000040000fa
:04005400c8020000de
:020000040000fa
:040058003803000069
:020000040000fa
:04005c00b0040000ec
:020000040000fa
:04006000b0040000e8
:020000040000fa
:04006400b0040000e4
:020000040000fa
:04006800b0040000e0
:020000040000fa
:04006c00b0040000dc
:020000040000fa
:04007000b0040000d8
:020000040000fa
:04007400b0040000d4
:020000040000fa
:04007800b0040000d0
:020000040000fa
:04007c00b0040000cc
:020000040000fa
:04008000b0040000c8
:020000040000fa
:04008400b0040000c4
:020000040000fa
:04008800b0040000c0
:020000040000fa
:04008c00b0040000bc
:020000040000fa
:04009000b0040000b8
:020000040000fa
:04009400b0040000b4
:020000040000fa
:0400980086030000db
:020000040000fa
:04009c00b0040000ac
:020000040000fa
:0400a000c803000091
:020000040000fa
:0400a40062040000f2
:020000040000fa
:0400a800b0040000a0
:020000040000fa
:0400ac00b00400009c
:020000040000fa
:0400b000b004000098
:020000040000fa
:0400b400b004000094
:020000040000fa
:0400b800b004000090
:020000040000fa
:0400bc00b00400008c
:020000040000fa
:0400c000b004000088
:020000040000fa
:0400c400b004000084
:020000040000fa
:0400c800b004000080
:020000040000fa
:0400cc00b00400007c
:020000040000fa
:0400d000b004000078
:020000040000fa
:0400d400b004000074
:020000040000fa
:0400d800b004000070
:020000040000fa
:0400dc00b00400006c
:020000040000fa
:0400e000b004000068
:020000040000fa
:0400e400b004000064
:020000040000fa
:0400e800b004000060
:020000040000fa
:0400ec00b00400005c
:020000040000fa
:0400f000b004000058
:020000040000fa
:0400f400b004000054
:020000040000fa
:0400f800b004000050
:020000040000fa
:0400fc00b00400004c
:020000040000fa
:04010000b004000047
:020000040000fa
:04010400b004000043
:020000040000fa
:04010800b00400003f
:020000040000fa
:04010c00b00400003b
:020000040000fa
:04011000b004000037
:020000040000fa
:04011400b004000033
:020000040000fa
:04011800b00400002f
:020000040000fa
:04011c00b00400002b
:020000040000fa
:04012000b004000027
:020000040000fa
:04012400b004000023
:020000040000fa
:04012800b00400001f
:020000040000fa
:04012c00b00400001b
:020000040000fa
:04013000b004000017
:020000040000fa
:04013400b004000013
:020000040000fa
:04013800b00400000f
:020000040000fa
:04013c00b00400000b
:020000040000fa
:04014000b004000007
:020000040000fa
:04014400b004000003
:020000040000fa
:04014800b0040000ff
:020000040000fa
:04014c00b0040000fb
:020000040000fa
:04015000b0040000f7
:020000040000fa
:04015400b0040000f3
:020000040000fa
:04015800b0040000ef
:020000040000fa
:04015c00b0040000eb
:020000040000fa
:04020800b00400003e
:020000040000fa
:04020c00b00400003a
:020000040000fa
:04021000b004000036
:020000040000fa
:04021400b004000032
:020000040000fa
:04021800b00400002e
:020000040000fa
:04021c00b00400002a
:020000040000fa
:04022000b004000026
:020000040000fa
:04022400b004000022
:020000040000fa
:04022800b00400001e
:020000040000fa
:04022c00b00400001a
:020000040000fa
:04023000b004000016
:020000040000fa
:04023400b004000012
:020000040000fa
:04023800b00400000e
:020000040000fa
:04023c00b00400000a
:020000040000fa
:04024000b004000006
:020000040000fa
:04024400b004000002
:020000040000fa
:04024800b0040000fe
:020000040000fa
:04024c00b0040000fa
:020000040000fa
:04025000b0040000f6
:020000040000fa
:04025400b0040000f2
:020000040000fa
:04025800b0040000ee
:020000040000fa
:04025c00b0040000ea
:020000040000fa
:04026000b0040000e6
:020000040000fa
:04026400b0040000e2
:020000040000fa
:04026800b0040000de
:020000040000fa
:04026c00b0040000da
:020000040000fa
:04027000b0040000d6
:020000040000fa
:04027400b0040000d2
:020000040000fa
:04027800b0040000ce
:020000040000fa
:04027c00b0040000ca
:020000040000fa
:04028000b0040000c6
:020000040000fa
:04028400b0040000c2
:020000040000fa
:04028800b0040000be
:020000040000fa
:04028c00b0040000ba
:020000040000fa
:04029000b0040000b6
:020000040000fa
:04029400b0040000b2
:020000040000fa
:04029800b0040000ae
:020000040000fa
:04029c00b0040000aa
:020000040000fa
:0402a000b0040000a6
:020000040000fa
:0402a400b0040000a2
:020000040000fa
:0402a800b00400009e
:020000040000fa
:0402ac00b00400009a
:020000040000fa
:0402b000b004000096
:020000040000fa
:0402b400b004000092
:020000040000fa
:0402b800b00400008e
:020000040000fa
:0402bc00b00400008a
:020000040000fa
:0402c000b004000086
:020000040000fa
:0402c400b004000082
:020000040000fa
:0402c800b00400007e
:020000040000fa
:0402cc00b00400007a
:020000040000fa
:0402d000b004000076
:020000040000fa
:0402d400b004000072
:020000040000fa
:0402d800b00400006e
:020000040000fa
:0402dc00b00400006a
:020000040000fa
:0402e000b004000066
:020000040000fa
:0402e400b004000062
:020000040000fa
:0402e800b00400005e
:020000040000fa
:0402ec00b00400005a
:020000040000fa
:0402f000b004000056
:020000040000fa
:0402f400b004000052
:020000040000fa
:0402f800b00400004e
:020000040000fa
:0402fc00b00400004a
:020000040000fa
:04030000b004000045
:020000040000fa
:04030400b004000041
:020000040000fa
:04030800b00400003d
:020000040000fa
:04030c00b004000039
:020000040000fa
:04031000b004000035
:020000040000fa
:04031400b004000031
:020000040000fa
:04031800b00400002d
:020000040000fa
:04031c00b004000029
:020000040000fa
:04032000b004000025
:020000040000fa
:04032400b004000021
:020000040000fa
:04032800b00400001d
:020000040000fa
:04032c00b004000019
:020000040000fa
:04033000b004000015
:020000040000fa
:04033400b004000011
:020000040000fa
:04033800b00400000d
:020000040000fa
:04033c00b004000009
:020000040000fa
:04034000b004000005
:020000040000fa
:04034400b004000001
:020000040000fa
:04034800b0040000fd
:020000040000fa
:04034c00b0040000f9
:020000040000fa
:04035000b0040000f5
:020000040000fa
:04035400b0040000f1
:020000040000fa
:04035800b0040000ed
:020000040000fa
:04035c00b0040000e9
:020000040000fa
:100400004fc220000e7f22000e0188000000000075
:10041000000020000000e000020032000001200087
:1004200020028800140007004f0107000000e000d0
:1004300003003a00a0ba21000100200002003700aa
:100440000000200001002000810f70000100320038
:1004500014000700000020000000e000020032004d
:1004600000000200000000009611020000000000e1
:100470000040da000000fe004440a9004051200086
:100480000000e0000300320000002000a00188000e
:100490004440a800000006008a1f78008b1f7800e7
:1004a0000000060091018800800478000000eb0045
:1004b0001a003700e284440032a0b4009905ba0063
:1004c000e284440032a0b4009906ba00e2844400f9
:1004d00032a0b4000006eb00476fde00fd07b2005b
:1004e000636ce10003003a00ebff07000000eb0043
:1004f0000a003700606ce10004003a00005deb0088
:100500008b05e900fdff3e00040037006168e10053
:10051000010032000086eb000b00070019c7ba008b
:100520001905ba000e04e00003003a000a00e000da
:10053000e0ff3a0000000600fe07b2009e018800be
:100540008a047800f5ff3700395dba008b05e900b1
:100550000c003200295dba008b05e900080032006a
:100560000c00e00003003a00e284440032a0b40032
:10057000f5ff370019ddba008b05e900faff3a00f4
:100580008904e800e184440032a0b40000000600c1
:10059000809fbe00821f78003400f8000000200019
:1005a000a00188000200fa001011800066006000bf
:1005b0000000e000050032002222a9003011800076
:1005c00000407800004f78002300370021048000ad
:1005d00000802000008060000000e0001e0032006b
:1005e0002028ef003011800000407800004f780094
:1005f000f140800040062000808f5000010036004e
:100600002828ef0010002000f040880020418000e2
:100610000000e00010003a0041418000100320007b
:10062000808f500006003e00404180001e4178004f
:10063000e1b82000827078000000e80040418800a6
:100640004141800010032000808f500002003600de
:1006500040418000204188008560a9000080fa00a8
:100660003400f9004f0178004f00be000040060042
:10067000809fbe003400f80000002000a001880028
:100680000000fa00210480000000210000806000ca
:100690000000e000190032008580a900a10480005c
:1006a00000002100008060000000e0001300320024
:1006b0001141800030418000808f50000e003100d9
:1006c0000000000011118000002020000080600068
:1006d0000000e000fbff3a0010418000c1b520009f
:1006e000e14078008180fb00211188000000e800d3
:1006f00010418800010037009580a9000080fa00b1
:100700003400f9004f00be00004006003600f8003b
:10071000809fbe00829fbe00849fbe00869fbe0059
:100720003400f80000002000a00188000000fa005a
:10073000850b0700f10b0700408320003002be004c
:100740002003be0010002000010020006011b8004e
:100750000000420081804a0002014b0083814b006f
:1007600044832000009abe000292be008780a90048
:100770000080fa003400f9004f03be004f02be00b3
:100780004f01be004f00be003600f90000400600d9
:10079000809fbe00821f78003400f8000000200017
:1007a000a00188000200fa0090118000660060003d
:1007b0000000e000050032003222a900b0118000e4
:1007c00000407800004f7800380037003104800086
:1007d00000002400008060000000e00033003200d0
:1007e0001228ef00b011800000407800004f780020
:1007f0001cc8bf000004a2000004e00008003a008a
:100800001cc8bf000004e00020003200b1048000da
:1008100000002800008060000000e0001b003a009b
:100820008140800040062000808f5000010036008b
:100830001a28ef001000200080408800b04080009f
:100840000000e00019003a00d1408000f00f2000c5
:10085000808f500006003e00d04080001e4178008e
:1008600081942000827078000000e800d040880069
:10087000d1408000f00f2000808f50000a00360029
:10088000d0408000b04088000800370010002000f1
:10089000804088001a28ef00809420008040eb0000
:1008a00001487800010037000000000087c0a9005f
:1008b0000080fa003400f9004f0178004f00be00bc
:1008c00000400600809fbe003400f80000002000b9
:1008d000a00188000000fa00310480000000280018
:1008e000008060000000e0001900320087e0a900ed
:1008f000b104800000002800008060000000e000db
:1009000013003200a1408000c0408000808f500062
:100910000e00310000000000911180000020200036
:10092000008060000000e000fbff3a00a040800073
:1009300081842000e14078008180fb00a1118800c3
:100940000000e800a04088000100370097e0a900ff
:100950000080fa003400f9004f00be00004006009d
:100960000040da000000fe00000005008001780071
:1009700002003700b15978000201e9000200e000ee
:10098000fcff3a0000000600b041780031c1510080
:1009900002003a000304e000fbff3a000200fb0003
:1009a0000000060000017800b1417800035978008a
:1009b0000304e000fcff3a0000000600800078001d
:1009c0003104e000feff3a000080ea0000804000b1
:1009d00000000600889fbe000004be000b00370028
:1009e00009007800f5ff0700000178000800be004c
:1009f0001b0007000000e000090032000800e800ca
:100a00009900fb0009000700000478000800e000de
:100a1000030032001804e000f1ff3a000004eb008c
:100a2000080078004f04be00000006000001eb0043
:100a30006103b8006112b8008601420066427a0084
:100a4000814f5200040032000201e8000404e0007b
:100a5000f7ff3a008001eb00030078000000060079
:100a60000a003700b04178000304e00003003200c0
:100a70000201e900b1cf5100040032008381fb0084
:100a80001480fb0000805100000006000102780085
:0c0a90000200e000f3ff3a000000050047
:020000040000fa
:100a9c000d0a000000000000000000000000000033
:100aac00000000000000000000000000000000003a
:100abc00000000000000000000000000000000002a
:100acc00000000000000000000000000000000001a
:100adc00000000000000000000000000000000000a
:100aec0000000000000000000000000000000000fa
:100afc0000000000000000000000000000000000ea
:100b0c0000000000000000000000000000000000d9
:100b1c0000000000000000000000000000000000c9
:100b2c0000000000000000000000000000000000b9
:100b3c0000000000000000000000000000000000a9
:100b4c000000000000000000000000000000000099
:100b5c000000000000000000000000000000000089
:100b6c000000000000000000000000000000000079
:100b7c000000000000000000000000000000000069
:100b8c00f401000064000000790d00000a00000070
:100b9c000000000000000000000000000000000049
:100bac000000000000000000000000000000000039
:100bbc000000000000000000000000000000000029
:100bcc000000000000000000000000000000000019
:100bdc000000000000000000000000000000000009
:100bec0000000000000000000000000000000000f9
:100bfc0000000000000000000000000000000000e9
:100c0c0000000000000000000000000000000000d8
:100c1c0000000000000000000000000000000000c8
:100c2c0000000000000000000000000000000000b8
:100c3c0000000000000000000000000000000000a8
:100c4c000000000000000000000000000000000098
:100c5c000000000000000000000000000000000088
:100c6c000000000000000000000000000000000078
:100c7c000000000000000000f4010000640000000f
:100c8c00760d00000a0000000000000000000000cb
:100c9c000000000000000000000000000000000048
:100cac000000000000000000000000000000000038
:100cbc000000000000000000000000000000000028
:100ccc000000000000000000000000000000000018
:100cdc000000000000000000000000000000000008
:100cec0000000000000000000000000000000000f8
:100cfc0000000000000000000000000000000000e8
:100d0c0000000000000000000000000000000000d7
:100d1c0000000000000000000000000000000000c7
:100d2c0000000000000000000000000000000000b7
:100d3c0000000000000000000000000000000000a7
:100d4c000000000000000000000000000000000097
:100d5c000000000000000000000000000000000087
:100d6c000000000000000000000000000000000077
:100d7c00f401000064000000534600002c32000017
:100d8c000d0a000000000000000000000000000040
:100d9c000000000000000000000000000000000047
:100dac000000000000000000000000000000000037
:100dbc000000000000000000000000000000000027
:100dcc000000000000000000000000000000000017
:100ddc000000000000000000000000000000000007
:100dec0000000000000000000000000000000000f7
:100dfc00414f00004b00000000000000000000000c
:100e0c0000000000000000000000000000000000d6
:100e1c0000000000000000000000000000000000c6
:100e2c0000000000000000000000000000000000b6
:100e3c0000000000000000000000000000000000a6
:100e4c000000000000000000000000000000000096
:100e5c000000000000000000000000000000000086
:100e6c000000000000000000f4010000640000001d
:100e7c00535200002c33000032300000303400009c
:100e8c0030300000300d00000a00000000000000af
:100e9c000000000000000000000000000000000046
:100eac000000000000000000000000000000000036
:100ebc000000000000000000000000000000000026
:100ecc000000000000000000000000000000000016
:100edc000000000000000000000000000000000006
:100eec000000000000000000414f00004b0000001b
:100efc0000000000000000000000000000000000e6
:100f0c0000000000000000000000000000000000d5
:100f1c0000000000000000000000000000000000c5
:100f2c0000000000000000000000000000000000b5
:100f3c0000000000000000000000000000000000a5
:100f4c000000000000000000000000000000000095
:100f5c000000000000000000000000000000000085
:100f6c00f401000064000000535400002c30000019
:100f7c0030360000342c00003030000030320000dd
:100f8c002c30000030360000340d00000a00000048
:100f9c000000000000000000000000000000000045
:100fac000000000000000000000000000000000035
:100fbc000000000000000000000000000000000025
:100fcc000000000000000000000000000000000015
:100fdc000000000000000000000000000000000005
:100fec00414f00004b00000000000000000000001a
:100ffc0000000000000000000000000000000000e5
:10100c0000000000000000000000000000000000d4
:10101c0000000000000000000000000000000000c4
:10102c0000000000000000000000000000000000b4
:10103c0000000000000000000000000000000000a4
:10104c000000000000000000000000000000000094
:10105c000000000000000000f4010000640000002b
:10106c00535300002c3000003030000030300000b2
:10107c0030300000300d00000a00000000000000bd
:10108c000000000000000000000000000000000054
:10109c000000000000000000000000000000000044
:1010ac000000000000000000000000000000000034
:1010bc000000000000000000000000000000000024
:1010cc000000000000000000000000000000000014
:1010dc000000000000000000414f00004b00000029
:1010ec0000000000000000000000000000000000f4
:1010fc0000000000000000000000000000000000e4
:10110c0000000000000000000000000000000000d3
:10111c0000000000000000000000000000000000c3
:10112c0000000000000000000000000000000000b3
:10113c0000000000000000000000000000000000a3
:10114c000000000000000000000000000000000093
:10115c00f401000064000000534e00002c5300000a
:10116c00506c0000756700000d0a000000000000c4
:10117c000000000000000000000000000000000063
:10118c000000000000000000000000000000000053
:10119c000000000000000000000000000000000043
:1011ac000000000000000000000000000000000033
:1011bc000000000000000000000000000000000023
:1011cc000000000000000000000000000000000013
:1011dc00414f00004b000000000000000000000028
:1011ec0000000000000000000000000000000000f3
:1011fc0000000000000000000000000000000000e3
:10120c0000000000000000000000000000000000d2
:10121c0000000000000000000000000000000000c2
:10122c0000000000000000000000000000000000b2
:10123c0000000000000000000000000000000000a2
:10124c000000000000000000f40100006400000039
:10125c00522c0000310d00000a00000000000000bc
:10126c000000000000000000000000000000000072
:10127c000000000000000000000000000000000062
:10128c000000000000000000000000000000000052
:10129c000000000000000000000000000000000042
:1012ac000000000000000000000000000000000032
:1012bc000000000000000000000000000000000022
:1012cc00000000000000000052650000626f00008a
:1012dc006f7400000000000000000000000000001f
:1012ec0000000000000000000000000000000000f2
:1012fc0000000000000000000000000000000000e2
:10130c0000000000000000000000000000000000d1
:10131c0000000000000000000000000000000000c1
:10132c0000000000000000000000000000000000b1
:10133c0000000000000000000000000000000000a1
:10134c00f4010000b80b00000000000000000000d9
:10135c000000000000000000000000000000000081
:10136c000000000000000000000000000000000071
:10137c000000000000000000000000000000000061
:10138c000000000000000000000000000000000051
:10139c000000000000000000000000000000000041
:1013ac000000000000000000000000000000000031
:1013bc000000000000000000000000000000000021
:1013cc000000000000000000000000000000000011
:1013dc000000000000000000000000000000000001
:1013ec0000000000000000000000000000000000f1
:1013fc0000000000000000000000000000000000e1
:10140c0000000000000000000000000000000000d0
:10141c0000000000000000000000000000000000c0
:10142c0000000000000000000000000000000000b0
:10143c0000000000000000000000000000000000a0
:10144c004f0d00000a00000025730000004300004f
:10145c004f4e00004e450000435400004544000030
:10146c000d0a0000004300004f4e00004e450000e6
:10147c0043540000494f00004e200000454e000030
:10148c00440d00000a0000004d4c000044500000c8
:10149c000d0a0000000000004d4300004850000001
:1014ac002d5000004d2d000031320000333400006f
:0814bc0035360000310000008c
:020000040000fa
:1014c4000000fa00b70707002a68ef000080fa005e
:1014d400000006000200fa000000eb00000f780094
:1014e4002ac8bf000004e0000200320000bc200053
:1014f400000f78001e0078000080fa00000006004b
:101504000200fa000000eb00000f78002bc8bf00b7
:101514000004e0000200320020bf2000000f780029
:101524001e0078000080fa00000006000000fa00a7
:101534002ac8bf000080fa00000006000000fa007c
:101544002bc8bf000080fa00000006000000fa006b
:101554002a68ef000080fa00000006000000fa008c
:101564002b68ef000080fa00000006003400fa0047
:101574000000eb00000f78000e80e8001e00400021
:1015840051cab300014878001e0fe8000e80e8003d
:101594001e00400081c0b300014878001e0fe8001f
:1015a4000e80e8001e00400011c4b300014878001a
:1015b4001e0fe8000e80e8001e0040008040eb0093
:1015c400014878001e0fe8000e80e8001e0040006d
:1015d40061c0b300014878001e0fe8000e80e800e7
:1015e4001e004000e1c4b300014878001e0fe8006b
:1015f4000e80e8001e00400081c1b300014878005d
:101604001e0fe8000e80e8001e004000a1c5b300d4
:10161400014878001e0fe8000e80e8009e00780064
:101624008d0707000080fa00000006003400fa006d
:101634000000eb00000f78000e80e8001e00400060
:1016440051cab300014878001e0fe8000e80e8007c
:101654001e00400081c0b300014878001e0fe8005e
:101664000e80e8001e00400011c4b3000148780059
:101674001e0fe8000e80e8001e0040008040eb00d2
:10168400014878001e0fe8000e80e8001e004000ac
:10169400e1c1b300014878001e0fe8000e80e800a5
:1016a4001e004000e1c4b300014878001e0fe800aa
:1016b4000e80e8001e00400001c2b300014878001b
:1016c4001e0fe8000e80e8001e004000a1c7b30012
:1016d400014878001e0fe8000e80e8009e007800a4
:1016e4005d0707000080fa00000006003400fa00dd
:1016f4000000eb00000f78000e80e8001e004000a0
:1017040051cab300014878001e0fe8000e80e800bb
:101714001e004000a1c0b300014878001e0fe8007d
:101724000e80e8001e00400011c4b3000148780098
:101734001e0fe8000e80e8001e0040008040eb0011
:10174400014878001e0fe8000e80e8001e004000eb
:10175400c1cdb300014878001e0fe8000e80e800f8
:101764001e004000d1c4b300014878001e0fe800f9
:101774000e80e8001e00400021c0b300014878003c
:101784001e0fe8000e80e8001e00400011c0b300e8
:10179400014878001e0fe8000e80e8001e0040009b
:1017a4008040eb00014878001e0fe8000e80e8003e
:1017b4001e004000c1c1b300014878001e0fe800bc
:1017c4000e80e8009e007800230707000080fa00de
:1017d400000006003400fa000000eb00000f78005f
:1017e4000e80e8001e00400051cab3000148780092
:1017f4001e0fe8000e80e8001e004000a1c0b300e8
:10180400014878001e0fe8000e80e8001e0040002a
:1018140011c4b300014878001e0fe8000e80e800f0
:101824001e0040008040eb00014878001e0fe800d5
:101834000e80e8001e004000c1cdb30001487800ce
:101844001e0fe8000e80e8001e004000d1c4b30063
:10185400014878001e0fe8000e80e8001e004000da
:1018640021c0b300014878001e0fe8000e80e80094
:101874001e0040008040eb00014878001e0fe80085
:101884000e80e8001e0040008040eb000148780014
:101894001e0fe8000e80e8001e004000b1c1b30036
:1018a400014878001e0fe8000e80e8009e007800d2
:1018b400e90607000080fa00000006003600fa007e
:1018c4000040eb00004f78002cc8bf000080fb00f4
:1018d400cf80de009200200003002000820f500021
:1018e400838f5800a1003e0000600100090037000a
:1018f4000d0037002b0037002f0037004d00370054
:10190400510037006f003700730037009100370033
:1019140092003700800107002cc8bf000040e80097
:101924002ce8b700940037000e00e800dd0607003d
:10193400004f78001e4078000004e00009003200e7
:101944009e80fb000e00e800010178008000780012
:1019540000bc200004fc07001e417800a182200086
:101964008248780000bc200010407800e64f500008
:1019740007003a002ac8bf00e14f500004003a00b3
:101984002cc8bf000040e8002ce8b7007a003700fc
:1019940090c0b3002ce8b70080c2b3003077980041
:1019a40075003700f00107002cc8bf000040e800b4
:1019b4002ce8b700700037000e00e800b9060700f5
:1019c400004f78001e4078000004e0000900320057
:1019d4009e80fb000e00e800010178008000780082
:1019e40000bc2000e0fb07001e417800a18220001b
:1019f4008248780000bc200010407800e64f500078
:101a040007003a002ac8bf00e14f500004003a0022
:101a14002cc8bf000040e8002ce8b700560037008f
:101a240090c0b3002ce8b70090c2b30030779800a0
:101a340051003700e80107002cc8bf000040e8004f
:101a44002ce8b7004c0037000e00e80095060700ac
:101a5400004f78001e4078000004e00009003200c6
:101a64009e80fb000e00e8000101780080007800f1
:101a740000bc2000bcfb07001e417800a1822000ae
:101a84008248780000bc200010407800e64f5000e7
:101a940007003a002ac8bf00e14f500004003a0092
:101aa4002cc8bf000040e8002ce8b7003200370023
:101ab40090c0b3002ce8b700a0c2b3003077980000
:101ac4002d003700fc0107002cc8bf000040e800cf
:101ad4002ce8b700280037000e00e8007106070064
:101ae400004f78001e4078000004e0000900320036
:101af4009e80fb000e00e800010178008000780061
:101b040000bc200098fb07001e417800a182200041
:101b14008248780000bc200010407800e64f500056
:101b240007003a002ac8bf00e14f500004003a0001
:101b34002cc8bf000040e8002ce8b7000e003700b6
:101b440090c0b3002ce8b700d0c2b300307798003f
:101b54000900370000c2b30030779800300320003a
:101b64000e00400011002000c20507002c68ef00a1
:101b74003068ef00000000000080fa00000006005a
:101b84003600fa000040eb00004f78002cc8bf007c
:101b94000080fb00e20f500032003200e20f5000e0
:101ba40005003c000000e0000a003200e10f500094
:101bb4000d00320055003700e40f50004d00320094
:101bc400e40f50002c003500e50f50004b003200ac
:101bd4004e0037009c0107002cc8bf000040e800fd
:101be4002ce8b7004c0037000e00e8002d06070073
:101bf400004f78001e4078000004e0000900320025
:101c04009e80fb000e00e80001017800800078004f
:101c140000bc200054fb07001e417800a182200074
:101c24008248780000bc200010407800e64f500045
:101c340007003a002ac8bf00e14f500004003a00f0
:101c44002cc8bf000040e8002ce8b7003200370081
:101c540050c0b3002ce8b700f0c2b300307798004e
:101c64002d003700940107002cc8bf000040e80095
:101c74002ce8b700280037000e00e800090607002a
:101c8400004f78001e4078000004e0000900320094
:101c94009e80fb000e00e8000101780080007800bf
:101ca40000bc200030fb07001e417800a182200008
:101cb4008248780000bc200010407800e64f5000b5
:101cc40007003a002ac8bf00e14f500004003a0060
:101cd4002cc8bf000040e8002ce8b7000e00370015
:101ce40050c0b3002ce8b700d0c2b30030779800de
:101cf4000900370000c2b300307798003003200099
:101d04000e004000110020005a0507002c68ef0067
:101d14003168ef00000000000080fa0000000600b7
:101d24006600fa00881f78000040eb00004f78003e
:101d34002dc8bf000080fb000000e000030032005b
:101d4400e10f50000b0032006e00370032c8bf00b4
:101d54000004e0000200320034fe070001003700f6
:101d640002fe07002dc8bf000040e8002de8b700c0
:101d7400660037000e00e800ca050700004f78002f
:101d84001e407800e14f50001600360032c8bf00f4
:101d94000004e0000a0032009e80fb000e00e80010
:101da400010178008000780020bf2000eefa0700cf
:101db4001e417800b1822000824878000900370073
:101dc4009e80fb000e00e80001017800800078008e
:101dd40000bc2000e4fa07001e417800a182200024
:101de4008248780032c8bf000004e00023003200bb
:101df40020bf200010407800e64f500018003a0041
:101e040020c3b30030779800e0cfb3004077980048
:101e1400cafd070050779800c8fd07000084fb0046
:101e2400b7fd070080007800300320000e0040005a
:101e34006300400008017800cbfa0700bffd0700eb
:101e44000080fb0063004000800078003003200025
:101e54000e00400007050700c0fd070029003700f9
:101e640050c1b30030779800300320000e004000ca
:101e740011002000ff0407002200370000bc2000ee
:101e840010407800e64f500018003a0010c3b30029
:101e940030779800e0cfb30040779800a3fd0700a7
:101ea40050779800a1fd07000084fb0089fd07001e
:101eb40080007800300320000e00400063004000e2
:101ec40008017800a8fa070098fd07000080fb00cd
:101ed4006300400080007800300320000e004000c2
:101ee400e404070099fd07000600370050c1b30061
:101ef40030779800300320000e00400011002000cd
:101f0400dc0407003368ef00000000004f04780091
:101f14000080fa00000006003400fa000000eb0024
:101f2400000f78000e80e8001e00400051cab30084
:101f3400014878001e0fe8000e80e8001e004000f3
:101f4400c1c1b300014878001e0fe8000e80e8000c
:101f54001e00400011c4b300014878001e0fe800c1
:101f64000e80e8001e0040008040eb00014878002d
:101f74001e0fe8000e80e8001e00400021c8b300d8
:101f8400014878001e0fe8000e80e8001e004000a3
:101f9400d1c4b300014878001e0fe8000e80e800a9
:101fa4001e00400041c1b300014878001e0fe80044
:101fb4000e80e8001e00400021c1b30001487800f3
:101fc4001e0fe8000e80e8001e004000c1c0b300f0
:101fd400014878001e0fe8000e80e8001e00400053
:101fe40041c1b300014878001e0fe8000e80e800ec
:101ff4001e0040008040eb00014878001e0fe800fe
:102004000e80e8001e00400001c5b30001487800be
:102014001e0fe8000e80e8001e00400031ccb30023
:10202400014878001e0fe8000e80e8001e00400002
:102034008040eb00014878001e0fe8000e80e800a5
:102044001e0040008040eb00014878001e0fe800ad
:102054000e80e8001e00400081c9b30001487800ea
:102064001e0fe8000e80e8001e00400081c0b3008f
:10207400014878001e0fe8000e80e8001e004000b2
:1020840001cbb300014878001e0fe8000e80e80081
:102094001e004000d1cab300014878001e0fe800ba
:1020a4000e80e8001e00400011c0b3000148780013
:1020b4001e0fe8000e80e8001e0040008040eb0088
:1020c400014878001e0fe8000e80e8001e00400062
:1020d40041c2b300014878001e0fe8000e80e800fa
:1020e4001e00400041c7b300014878001e0fe800fd
:1020f4000e80e8001e00400011c0b30001487800c3
:102104001e0fe8000e80e8001e0040008040eb0037
:10211400014878001e0fe8000e80e8001e00400011
:1021240001c5b300014878001e0fe8000e80e800e6
:102134001e00400031ccb300014878001e0fe800b7
:102144000e80e8001e00400041cdb3000148780035
:102154001e0fe8000e80e8009e007800be04070011
:102164000080fa00000006003400fa000000eb00d2
:10217400000f78000e80e8001e00400051cab30032
:10218400014878001e0fe8000e80e8001e004000a1
:1021940041c0b300014878001e0fe8000e80e8003b
:1021a4001e00400061c7b300014878001e0fe8001c
:1021b4000e80e8001e004000f1c1b3000148780021
:1021c4001e0fe8000e80e8009e007800a2040700bd
:1021d4000080fa00000006003400fa000000eb0062
:1021e400000f78000e80e8001e00400051cab300c2
:1021f400014878001e0fe8000e80e8001e00400031
:1022040041c0b300014878001e0fe8000e80e800ca
:102214001e004000a1c5b300014878001e0fe8006d
:102224000e80e8001e00400031c0b3000148780071
:102234001e0fe8000e80e8009e0078008604070068
:102244000080fa00000006003400fa000000eb00f1
:10225400000f78000e80e8001e00400051cab30051
:10226400014878001e0fe8000e80e8001e004000c0
:1022740041c0b300014878001e0fe8000e80e8005a
:102284001e004000a1c7b300014878001e0fe800fb
:102294000e80e8001e00400031c2b30001487800ff
:1022a4001e0fe8000e80e8009e0078006a04070014
:1022b4000080fa00000006003400fa000000eb0081
:1022c400000f78000e80e8001e00400051cab300e1
:1022d400014878001e0fe8000e80e8001e00400050
:1022e40041c0b300014878001e0fe8000e80e800ea
:1022f4001e00400031c5b300014878001e0fe800fd
:102304000e80e8001e004000c1cfb30001487800f1
:102314001e0fe8000e80e8009e0078004e040700bf
:102324000080fa00000006007a00fa00889fbe00d0
:102334008a9fbe004d0507002c05070060fc0700be
:1023440020a528002302070010c0b3002fe8b7001f
:102354003a050700001798001117980022179800f3
:1023640033179800350507000027980011279800b7
:10237400222798003327980030050700000f9800a3
:10238400110f9800220f9800330f98002b050700b7
:102394004017980051179800621798007317980017
:1023a40026050700001f9800111f9800221f98009f
:1023b400331f980001003700000000000060fe0099
:1023c400f40307000004a2000004e0001f00320030
:1023d40044c8bf000004e0001c00320017050700d9
:1023e4000205be000004be000e1890009e18900066
:1023f4002e199000be1990000002540081825c00e6
:1024040002035d0083835d00803821000100200009
:102414006011b8000020e10001a8e10002b0e10071
:1024240003b8e1000e003600cde2a80010c0b300ee
:102434003ee8b70001050700001f9800111f98002f
:10244400221f9800331f980005003700fb04070083
:10245400001f9800111f9800221f9800331f980036
:102464002fc8bf000004e0002b003200f304070073
:102474000205be000004be000e1090009e109000e5
:102484002e119000be1190000002540081825c0065
:1024940002035d0083835d00007d200001002000b5
:1024a4006011b8000020e10001a8e10002b0e100e1
:1024b40003b8e10049003600c962a900c982a90035
:1024c40061168000f07f2e00008060006016880096
:1024d400cdc2a80010c0b3002ee8b70010c0b300ee
:1024e4003de8b7002f68ef0010c1b30000cf98009b
:1024f40010c0b3003fe8b70010c0b30040e8b70015
:10250400b4fc0700800420000e00400011002000ed
:102514005803070031003700c8040700001798006b
:10252400111798002217980033179800511680004d
:1025340000402000008060000000e00027003a0016
:10254400be0407000205be000004be004e18900041
:10255400de1890006e199000fe19900000025400dd
:1025640081825c0002035d0083835d00800c200097
:10257400010020006011b8000020e10001a8e10082
:1025840002b0e10003b8e1001400360044c8bf0003
:102594000080fb000000a20000f0a7000000ea0099
:1025a4000000ea004f00de000040780044e8b70075
:1025b40044c8bf000004a2000004e000030032008d
:1025c400cde2a9003e68ef0003003700cde2a80089
:1025d40010c0b3003ee8b700de02070051168000c9
:1025e40000402000008060000000e00005003a0088
:1025f40092040700401f9800511f9800621f980022
:10260400731f98002ec8bf000004e00027003200aa
:102614008a0407000205be000004be004e089000b4
:10262400de0890006e099000fe099000000254003c
:1026340081825c0002035d0083835d00000520004d
:10264400010020006011b8000020e10001a8e100b1
:1026540002b0e10003b8e100190036003dc8bf0034
:102664000004e000060032006016800000b0a00004
:102674006016880010c1b30000cf98000500370031
:102684006016800000c0a1006016880020c1b3005d
:1026940000cf98002e68ef00800420000e00400058
:1026a40011002000f302070005003700630407004f
:1026b400400f9800510f9800620f9800730f980014
:1026c40030c8bf000004e0001a0032005b040700b9
:1026d4000205be000004be000e0890009e08900093
:1026e4002e099000be0990000002540081825c0013
:1026f40002035d0083835d00c00820000100200008
:102704006011b8000020e10001a8e10002b0e1007e
:1027140003b8e1008d00360068fc07004704070099
:10272400000f9800110f9800220f9800330f9800a3
:102734008600370031c8bf000004e0001a003200f0
:102744003e0407000205be000004be000e0890000f
:102754009e0890002e099000be09900000025400cb
:1027640081825c0002035d0083835d00c008200059
:10277400010020006011b8000020e10001a8e10080
:1027840002b0e10003b8e10070003600fcfc070071
:102794002a040700000f9800110f9800220f9800d8
:1027a400330f98006900370033c8bf000004e0000d
:1027b4001a003200210407000205be000004be0016
:1027c4004e109000de1090006e119000fe119000eb
:1027d4000002540081825c0002035d0083835d007b
:1027e40060092000010020006011b8000020e10011
:1027f40001a8e10002b0e10003b8e1005300360093
:1028040047fd07000d040700401798005117980072
:1028140062179800731798004c0037003fc8bf0038
:102824000004e00020003200040407000205be009a
:102834000004be004e009000de0090006e01900087
:10284400fe0190000002540081825c0002035d00de
:1028540083835d0020032000010020006011b80084
:102864000020e10001a8e10002b0e10003b8e100aa
:102874003600360040c8bf000004e0000800320003
:10288400ee0307004007980051079800620798007c
:10289400730798004068ef0094fb07002b00370093
:1028a4003f68ef0029003700e40307004007980061
:1028b400510798006207980073079800df03070028
:1028c400000f9800110f9800220f9800330f980002
:1028d400da03070040179800511798006217980010
:1028e400731798003ec8bf000004a2000004e00073
:1028f40003003200d1030700009fbe000297be0010
:10290400ce0307003e025000be8258003e03590029
:102914009e8359006e00b100400620000100200093
:102924006011b8000020e10001a8e10002b0e1005c
:1029340003b8e10005003600c0030700009fbe0095
:102944000297be003e68ef00cde2a9000500070033
:1029540044c8bf000004e00097fe3200bb0007003b
:1029640096fe37003600fa005e020700004f78003a
:102974001e407800e24f500093003e001e40780055
:10298400e24f500091003a0080a4200010407800eb
:102994001047980090a42000104078002047980029
:1029a4001e4090000080fb0001022000810f5000b7
:1029b4003500320001032000810f5000490032002d
:1029c400f00f500071003a002e409000f14f50007b
:1029d4000e003a0061168000f07f2e000080600037
:1029e40060168800cdc2a80010c0b3002ee8b7005e
:1029f40010c0b3003de8b70010c1b30030479800e1
:102a040063004700110020001a0207002e409000c6
:102a1400f24f50000d003a00611680000080210042
:102a24000100700060168800cdc2a90010c0b30078
:102a34002ee8b7003d68ef0020c1b300304798008e
:102a440063004700110020000a0207002e40900096
:102a5400f34f50004f003a003dc8bf000004e000af
:102a64000300320010c1b300304798000200370061
:102a740020c1b300304798006300470011002000d4
:102a8400fc0107004e003700ae40900010c2b300b6
:102a940080cf500007003a0030c8bf000004a200f5
:102aa4000004e0000300320010c0b30030e8b700b7
:102ab4002c68ef00ae40900020c2b30080cf5000dd
:102ac40036003a0031c8bf000004a2000004e00050
:102ad4003400320010c0b30031e8b7002c68ef00b6
:102ae40037003700ae40900010c3b30080cf5000d1
:102af40009003a0033c8bf000004a2000004e0004b
:102b04002a00320010c0b30033e8b7003268ef0087
:102b14002d68ef002a003700ae40900020c3b300b8
:102b240080cf50000a003a0033c8bf000004a2005e
:102b34000004e0001f00320010c0b30033e8b70007
:102b440010c0b30032e8b7002d68ef001c00370056
:102b5400ae40900040c3b30080cf500017003a004d
:102b640010c0b3003fe8b70010c0b30040e8b7009e
:102b740018fb070040c3b3003047980063004700c8
:102b840011002000bb0107000d0037000000000009
:102b94000b003700000000000900370000000000af
:102ba40007003700000000000500370000000000a7
:102bb400030037000000000001003700000000009f
:102bc400cc01070001003700ca0107000080fa00a9
:102bd400000006000400fa00100798001e00900090
:102be40075f70700004f78001e407800f34f50003f
:102bf4000200360030c1b300004f78001e80fb0095
:102c0400000178009e00900080b4200056f7070071
:102c14001e80fb0081b420000041eb00827078002c
:102c240057020700cc62a900c862a900c422a80008
:102c3400c022a900c442a800c042a900c082a800c2
:102c44000028ef000080fa0000000600b800fa0037
:102c5400889fbe008a9fbe0010168000700060002e
:102c64000000e0000700320000408000e50f500043
:102c740004003a00cc62a9006000200000408800f3
:102c84000568ef0000408000e30f5000540032005c
:102c9400e30f500005003e00e10f50001300320026
:102ca400e10f5000ad003e0007003700e50f500073
:102cb400de003200e50f5000c8003900e60f500076
:102cc400f10032001f013700cc62a90010c0b3002c
:102cd4009802070010002000004088000628ef003a
:102ce4001000200030428800160137003140800077
:102cf400c00720000088b90080007800e054280054
:102d040000804000104078000004e0002f003200f2
:102d140031408000c00720000088b900800078009e
:102d2400e054280080804000640047001cf707003e
:102d340064004700a1a2280025f70700000f7800cf
:102d44001e0078000000e0001400320081b420006e
:102d54001e00780012f7070031408000c0072000f1
:102d64000088b90080007800e0542800808040008a
:102d74001e01780064004700000051000080e80054
:102d840000844000640047000bf70700e40047009c
:102d9400008040008800780001f7070064004700c5
:102da40005f707008000780064004700210207004f
:102db400a202070084802000009abe000292be0096
:102dc4003000200000408800de00370010002000a2
:102dd400304288006000200000408800d90037009d
:102de400000420000e004000250207001007980090
:102df40031408000c00720000088b900000078003e
:102e0400c103200080804000e0542800008040007e
:102e1400104078000004e00007003a008702070031
:102e240084802000009abe000292be002000200090
:102e340000408800c30037001e0090000000e0003e
:102e44002500320031408000c00720000088b9000e
:102e540000007800c103200080804000e054280076
:102e640080804000c00720000e004000ccf6070020
:102e7400c00720000e0040002201070000042000cb
:102e84000e0040001f010700c00720000e00400094
:102e9400c9f60700000047008040eb0001c098001d
:102ea400010420008e804000c00720000e00400076
:102eb400b4f607000000e00093003a005f02070048
:102ec40084802000009abe000292be0020002000f0
:102ed400004088009b003700580207000205be002e
:102ee4000004be00808020005001be004000be00ef
:102ef4000002540081825c0002035d0083835d0054
:102f040031408000c00720000088b900000078002c
:102f14008107200080804000e054280000804000a9
:102f2400100078008000eb006011b8000020e10080
:102f340001a8e10002b0e10003b8e100740036002a
:102f44003e02070084802000009abe000292be0068
:102f540040002000004088007a0037003702070054
:102f64000205be000004be00808020005001be00a7
:102f74004000be000002540081825c0002035d0038
:102f840083835d0031408000c00720000088b900c1
:102f940000007800a107200080804000e054280051
:102fa40000804000100078008000eb006011b80041
:102fb4000020e10001a8e10002b0e10003b8e10053
:102fc40055003600304080000000e80030408800a2
:102fd40010002000004088005a0037001702070044
:102fe4000205be000004be00808020005001be0027
:102ff4004000be000002540081825c0002035d00b8
:1030040083835d00401f2000010020006011b80090
:103014000020e10001a8e10002b0e10003b8e100f2
:103024003f0036000028ef0046003700000420006f
:103034000e00400092010700100798001e00900047
:103044000000e00038003200000420000e004000c0
:103054009e009000560007000004a2000004e00057
:1030640033003200000420000e0040001e019000d6
:103074008000780080a420003bf607009e009000aa
:10308400114088002f00370005c8bf000004e0008d
:103094000d00320010168000700060000000e00097
:1030a40009003a0004c8bf000004e0000600320032
:1030b400cc62a8004628ef005000200000408800a1
:1030c400000000001f003700000420000e00400034
:1030d4006b010700100798001e0090000000e0003c
:1030e40015003200000420000e0040009e009000f5
:1030f4002f0007000004e0001100320010c0b300ec
:1031040005e8b7000f003700000000000d0037008d
:10311400000000000b003700000000000900370029
:103124000000000007003700000000000500370021
:103134000000000003003700000000000100370019
:10314400000000004f05be004f04be000080fa00de
:10315400000006000a00fa0044c8bf000004a200f0
:103164000004e0000d003200c422a900c442a900fa
:103174004200200061a228000e007800faf5070042
:103184000e0078000cf60700800078000e0078002e
:10319400280107000028ef0003003700c422a8001c
:1031a400c442a8000028ef000080fa0000000600d6
:1031b4000601fa0010079900210799000040eb006e
:1031c400004f78000e00e8002e0191009e0091004f
:1031d400e5f507008e00e8002e0091000080400015
:1031e4008040eb00014878000e00e800450007002d
:1031f4000e00e800d1a22800f5f507008e00e800d3
:10320400810f500005003a0010c0b300004f780051
:1032140010c0b30004e8b700cde2a8000e00e80037
:1032240091a32800eaf507008e00e800810f500002
:1032340005003a0010c0b300004f78000468ef00a6
:103244000028ef00cde2a9000e00e800a1a42800a8
:10325400dff507008e00e800810f500002003a00fd
:1032640010c0b300004f78001e4078000080fa00c0
:10327400000006000400fa00000f7800110798000f
:1032840000408000e50f500009003a003042800001
:103294000000e00006003a0004c8bf000004e0009b
:1032a400030032009e0090001e007800e100070039
:1032b4000080fa00000006000200fa000000eb00a3
:1032c400000f7800104080000000e000020032008f
:1032d40080a42000000f78001e0078000080fa000f
:1032e400000006000000fa00104080000080fa0090
:1032f400000006000000fa000228ef000080fa0037
:10330400000006000600fa00200798002e00900036
:10331400a9f50700100798000000eb00000f7800e3
:10332400160037002e0090001e00400090407800e8
:1033340000c6b30080cf50000f0034002e00900070
:103344001e00400090407800a0c7b30080cf50001a
:1033540009003c002e0090001e004000ae009000ca
:103364009e804000914078000141780001ceb30076
:1033740081404100014878001e0fe8001e009000c3
:103384009e007800808f5000e6ff39000080fa002c
:10339400000006000000fa0004c8bf000080fa0024
:1033a400000006000000fa00c842a8002135800091
:1033b40000fe2f00008060000010a000203588006f
:1033c400cce2a800c8e2a90031368000f00f2e003c
:1033d40080806000003020000100700030368800da
:1033e40011118000f0f32f00008060000060a00045
:1033f4001011880023a2a90023e2a80010022000d3
:10340400401188002022ef002062a80041058000be
:10341400f0ff28000080600000e0a0004005880064
:103424005105800080ff2f00008060000020a00074
:10343400500588008580a9008560a9009580a900b1
:103444009560a80021e2a8002342a8002428ef00e8
:103454000080fa00000006000400fa00000f780063
:1034640011079800a1048000000021000080600082
:103474000000e00009003a001e0190009e00780060
:10348400c0b5200038f507009e0090003141880047
:103494002228ef008580a8009580a8000080fa000b
:1034a400000006000400fa00100798000000eb007a
:1034b400000f78009780a9009560a9000041800062
:1034c400f40f50001000360041418000010f7800d5
:1034d4001e0078000000e0000b0032001003200002
:1034e4009e007800808f50000200360010032000f8
:1034f400000f78001e017800e1b820001e00900043
:1035040019f507002828ef009780a8009560a80007
:103514001e0078000080fa00000006000800fa008f
:1035240020079800310798000000eb00000f780096
:103534000000eb001007980010c0b3000080fa00f0
:10354400000006000000fa0000418000e30f400084
:1035540003003e00004180000000e80000418800b4
:10356400f0408000e30f400003003e00f040800084
:103574000000e800f04088000080fa000000060027
:103584000000fa00c882a8003135800000fe2f0038
:10359400008060000020a00030358800cca2a80084
:1035a400c8a2a90021368000f00f2e0080806000a0
:1035b4000050200001007000203688009111800026
:1035c400f0f32f00008060000060a00090118800dc
:1035d40033a2a90033e2a80010022000c011880021
:1035e4003022ef003062a80091058000f08f2f0098
:1035f4000080600000a0a000900588009105800074
:10360400f0ff28000080600000e0a0009005880022
:1036140087e0a90087c0a90097e0a90097c0a80087
:1036240031e2a8003342a8001628ef000080fa0017
:10363400000006000400fa00000f7800110798004b
:10364400b104800000002800008060000000e00059
:1036540009003a001e0190009e007800808420003a
:10366400c1f407009e009000c14088001428ef00b8
:1036740087e0a80097e0a8000080fa000000060098
:103684000400fa00100798000000eb00000f780017
:103694009780a9009560a90090408000f40f500025
:1036a40010003600d1408000010f78001e00780021
:1036b4000000e0000b003200f00f20009e007800b4
:1036c400808f500002003600f00f2000000f7800b9
:1036d4001e017800819420001e009000a2f40700cf
:1036e4001a28ef009780a8009560a8001e007800b3
:1036f4000080fa00000006000000fa0090408000fc
:10370400e30f400003003e00904080000000e8000a
:103714009040880080408000e30f400003003e009a
:10372400804080000000e800804088000080fa00ab
:10373400000006000200fa00004f78001e417800e5
:10374400c1812000824878000080fa000000060051
:020000040000fa
:103754005c0b000064000000000000001e08000074
:103764000c00000000000000340800000800000005
:1037740000000000480800000002000000000000f3
:10378400100800000e000000000000003c080000cb
:1037940008000000000000004408000002000000cf
:1037a4000200000001000000c00b000064000000e3
:1037b400000000002a0800000a00000000000000c9
:1037c400480a000014010000000000000008000086
:1037d4001000000000000000460800000200000085
:0c37e400020000000100000000000000d6
:020000040000fa
:1037f0000000fa002021ef002021a900010980002b
:10380000f0fc2f00008060000009880000e8230021
:10381000e00888008780a9009105800080ff2f00c4
:10382000008060000020a000900588009780a8001c
:103830001821ef0021e1a8000080fa000000060036
:103840000800fa009780a900408320003002be00e3
:103850002003be00049fbe000697be009780a8000c
:103860003e00be002e01be000080fa0000000600ef
:103870000000fa00f0ff2d0060198800213a800056
:10388000f0ff28000080600000c0a000203a8800ff
:10389000213a8000f08f2f0000806000203a8800dd
:1038a000cdc2a900cde2a900c9c2a900c9e2a90000
:1038b000c962a800c982a800c942a8000080fa0015
:0438c00000000600fe
:020000040000fa
:04aff0009fff0000bf
:020000040000fa
:04aff400fffc00005e
:020000040000fa
:04aff8008ff90000cd
:020000040000fa
:04affc00ff3f000013
:00000001FF
